{
  "_format": "hh-sol-artifact-1",
  "contractName": "StableNairaPriceOracle",
  "sourceName": "contracts/StableNairaPriceOracle.sol",
  "abi": [
    {
      "inputs": [
        {
          "internalType": "uint8",
          "name": "_decimals",
          "type": "uint8"
        },
        {
          "internalType": "address[]",
          "name": "initialReporters",
          "type": "address[]"
        },
        {
          "internalType": "uint256",
          "name": "_quorum",
          "type": "uint256"
        }
      ],
      "stateMutability": "nonpayable",
      "type": "constructor"
    },
    {
      "inputs": [
        {
          "internalType": "address",
          "name": "owner",
          "type": "address"
        }
      ],
      "name": "OwnableInvalidOwner",
      "type": "error"
    },
    {
      "inputs": [
        {
          "internalType": "address",
          "name": "account",
          "type": "address"
        }
      ],
      "name": "OwnableUnauthorizedAccount",
      "type": "error"
    },
    {
      "anonymous": false,
      "inputs": [
        {
          "indexed": true,
          "internalType": "address",
          "name": "previousOwner",
          "type": "address"
        },
        {
          "indexed": true,
          "internalType": "address",
          "name": "newOwner",
          "type": "address"
        }
      ],
      "name": "OwnershipTransferred",
      "type": "event"
    },
    {
      "anonymous": false,
      "inputs": [
        {
          "indexed": false,
          "internalType": "uint256",
          "name": "roundId",
          "type": "uint256"
        },
        {
          "indexed": false,
          "internalType": "uint256",
          "name": "price",
          "type": "uint256"
        },
        {
          "indexed": false,
          "internalType": "uint256",
          "name": "timestamp",
          "type": "uint256"
        },
        {
          "indexed": false,
          "internalType": "address",
          "name": "submittedBy",
          "type": "address"
        }
      ],
      "name": "PriceSubmitted",
      "type": "event"
    },
    {
      "anonymous": false,
      "inputs": [
        {
          "indexed": false,
          "internalType": "uint256",
          "name": "quorum",
          "type": "uint256"
        }
      ],
      "name": "QuorumUpdated",
      "type": "event"
    },
    {
      "anonymous": false,
      "inputs": [
        {
          "indexed": false,
          "internalType": "address",
          "name": "reporter",
          "type": "address"
        }
      ],
      "name": "ReporterAdded",
      "type": "event"
    },
    {
      "anonymous": false,
      "inputs": [
        {
          "indexed": false,
          "internalType": "address",
          "name": "reporter",
          "type": "address"
        }
      ],
      "name": "ReporterRemoved",
      "type": "event"
    },
    {
      "inputs": [
        {
          "internalType": "uint256",
          "name": "roundId",
          "type": "uint256"
        },
        {
          "internalType": "uint256",
          "name": "price",
          "type": "uint256"
        },
        {
          "internalType": "uint256",
          "name": "timestamp",
          "type": "uint256"
        }
      ],
      "name": "_reportHash",
      "outputs": [
        {
          "internalType": "bytes32",
          "name": "",
          "type": "bytes32"
        }
      ],
      "stateMutability": "view",
      "type": "function"
    },
    {
      "inputs": [
        {
          "internalType": "address",
          "name": "r",
          "type": "address"
        }
      ],
      "name": "addReporter",
      "outputs": [],
      "stateMutability": "nonpayable",
      "type": "function"
    },
    {
      "inputs": [],
      "name": "decimals",
      "outputs": [
        {
          "internalType": "uint8",
          "name": "",
          "type": "uint8"
        }
      ],
      "stateMutability": "view",
      "type": "function"
    },
    {
      "inputs": [],
      "name": "getLatestPrice",
      "outputs": [
        {
          "internalType": "uint256",
          "name": "price",
          "type": "uint256"
        },
        {
          "internalType": "uint256",
          "name": "ts",
          "type": "uint256"
        },
        {
          "internalType": "uint256",
          "name": "roundId",
          "type": "uint256"
        }
      ],
      "stateMutability": "view",
      "type": "function"
    },
    {
      "inputs": [],
      "name": "getReporters",
      "outputs": [
        {
          "internalType": "address[]",
          "name": "",
          "type": "address[]"
        }
      ],
      "stateMutability": "view",
      "type": "function"
    },
    {
      "inputs": [
        {
          "internalType": "address",
          "name": "",
          "type": "address"
        }
      ],
      "name": "isReporter",
      "outputs": [
        {
          "internalType": "bool",
          "name": "",
          "type": "bool"
        }
      ],
      "stateMutability": "view",
      "type": "function"
    },
    {
      "inputs": [],
      "name": "latestRoundId",
      "outputs": [
        {
          "internalType": "uint256",
          "name": "",
          "type": "uint256"
        }
      ],
      "stateMutability": "view",
      "type": "function"
    },
    {
      "inputs": [],
      "name": "maxDeviationPPB",
      "outputs": [
        {
          "internalType": "uint256",
          "name": "",
          "type": "uint256"
        }
      ],
      "stateMutability": "view",
      "type": "function"
    },
    {
      "inputs": [],
      "name": "maxStalenessSec",
      "outputs": [
        {
          "internalType": "uint256",
          "name": "",
          "type": "uint256"
        }
      ],
      "stateMutability": "view",
      "type": "function"
    },
    {
      "inputs": [],
      "name": "owner",
      "outputs": [
        {
          "internalType": "address",
          "name": "",
          "type": "address"
        }
      ],
      "stateMutability": "view",
      "type": "function"
    },
    {
      "inputs": [],
      "name": "quorum",
      "outputs": [
        {
          "internalType": "uint256",
          "name": "",
          "type": "uint256"
        }
      ],
      "stateMutability": "view",
      "type": "function"
    },
    {
      "inputs": [
        {
          "internalType": "address",
          "name": "r",
          "type": "address"
        }
      ],
      "name": "removeReporter",
      "outputs": [],
      "stateMutability": "nonpayable",
      "type": "function"
    },
    {
      "inputs": [],
      "name": "renounceOwnership",
      "outputs": [],
      "stateMutability": "nonpayable",
      "type": "function"
    },
    {
      "inputs": [
        {
          "internalType": "uint256",
          "name": "",
          "type": "uint256"
        }
      ],
      "name": "reporters",
      "outputs": [
        {
          "internalType": "address",
          "name": "",
          "type": "address"
        }
      ],
      "stateMutability": "view",
      "type": "function"
    },
    {
      "inputs": [
        {
          "internalType": "uint256",
          "name": "",
          "type": "uint256"
        }
      ],
      "name": "rounds",
      "outputs": [
        {
          "internalType": "uint256",
          "name": "roundId",
          "type": "uint256"
        },
        {
          "internalType": "uint256",
          "name": "price",
          "type": "uint256"
        },
        {
          "internalType": "uint256",
          "name": "timestamp",
          "type": "uint256"
        }
      ],
      "stateMutability": "view",
      "type": "function"
    },
    {
      "inputs": [
        {
          "internalType": "uint256",
          "name": "ppb",
          "type": "uint256"
        }
      ],
      "name": "setMaxDeviationPPB",
      "outputs": [],
      "stateMutability": "nonpayable",
      "type": "function"
    },
    {
      "inputs": [
        {
          "internalType": "uint256",
          "name": "sec_",
          "type": "uint256"
        }
      ],
      "name": "setMaxStaleness",
      "outputs": [],
      "stateMutability": "nonpayable",
      "type": "function"
    },
    {
      "inputs": [
        {
          "internalType": "uint256",
          "name": "q",
          "type": "uint256"
        }
      ],
      "name": "setQuorum",
      "outputs": [],
      "stateMutability": "nonpayable",
      "type": "function"
    },
    {
      "inputs": [
        {
          "internalType": "uint256",
          "name": "roundId",
          "type": "uint256"
        },
        {
          "internalType": "uint256",
          "name": "price",
          "type": "uint256"
        },
        {
          "internalType": "uint256",
          "name": "timestamp",
          "type": "uint256"
        },
        {
          "internalType": "bytes[]",
          "name": "sigs",
          "type": "bytes[]"
        }
      ],
      "name": "submitReport",
      "outputs": [],
      "stateMutability": "nonpayable",
      "type": "function"
    },
    {
      "inputs": [
        {
          "internalType": "address",
          "name": "newOwner",
          "type": "address"
        }
      ],
      "name": "transferOwnership",
      "outputs": [],
      "stateMutability": "nonpayable",
      "type": "function"
    }
  ],
  "bytecode": "0x60a06040526103846006556301312d006007553480156200001f57600080fd5b5060405162001281380380620012818339810160408190526200004291620002b3565b33806200006a57604051631e4fbdf760e01b8152600060048201526024015b60405180910390fd5b620000758162000230565b5080825110158015620000885750600081115b620000c75760405162461bcd60e51b815260206004820152600e60248201526d696e76616c69642071756f72756d60901b604482015260640162000061565b60ff8316608052600581905560005b825181101562000226576000838281518110620000f757620000f7620003ac565b6020026020010151905060006001600160a01b0316816001600160a01b031603620001555760405162461bcd60e51b815260206004820152600d60248201526c3d32b937903932b837b93a32b960991b604482015260640162000061565b6001600160a01b03811660009081526003602052604090205460ff1662000210576001600160a01b0381166000818152600360209081526040808320805460ff191660019081179091556004805491820181559093527f8a35acfbc15ff81a39ae7d344fd709f28e8600b4aa8c65c6b64bfe7fe36bd19b90920180546001600160a01b0319168417905590519182527f52824c4a4d431c73d6d24a91f775d722860111c6d30da30b0b21e062fb4c7365910160405180910390a15b50806200021d81620003c2565b915050620000d6565b50505050620003ea565b600080546001600160a01b038381166001600160a01b0319831681178455604051919092169283917f8be0079c531659141344cd1fd0a4f28419497f9722a3daafe3b4186f6b6457e09190a35050565b634e487b7160e01b600052604160045260246000fd5b80516001600160a01b0381168114620002ae57600080fd5b919050565b600080600060608486031215620002c957600080fd5b835160ff81168114620002db57600080fd5b602085810151919450906001600160401b0380821115620002fb57600080fd5b818701915087601f8301126200031057600080fd5b81518181111562000325576200032562000280565b8060051b604051601f19603f830116810181811085821117156200034d576200034d62000280565b60405291825284820192508381018501918a8311156200036c57600080fd5b938501935b828510156200039557620003858562000296565b8452938501939285019262000371565b809750505050505050604084015190509250925092565b634e487b7160e01b600052603260045260246000fd5b600060018201620003e357634e487b7160e01b600052601160045260246000fd5b5060010190565b608051610e7b6200040660003960006101b60152610e7b6000f3fe608060405234801561001057600080fd5b506004361061012c5760003560e01c8063715018a6116100ad5780638f1c357d116100715780638f1c357d146102ef578063c1ba4e5914610302578063cad664ed14610315578063dd8755f214610328578063f2fde38b1461033b57600080fd5b8063715018a6146102465780638614a3d71461024e5780638c65c81f146102575780638da5cb5b146102a05780638e15f473146102b157600080fd5b8063313ce567116100f4578063313ce567146101b15780635de5c212146101ea5780635e02cb7d146101fd57806364be73931461022857806370f462021461023157600080fd5b8063044ad7be14610131578063100bc9e11461016957806311a8f4131461017e5780631655a20b146101955780631703a018146101a8575b600080fd5b61015461013f366004610bfc565b60036020526000908152604090205460ff1681565b60405190151581526020015b60405180910390f35b61017c610177366004610c25565b61034e565b005b61018760015481565b604051908152602001610160565b61017c6101a3366004610c3e565b61035b565b61018760055481565b6101d87f000000000000000000000000000000000000000000000000000000000000000081565b60405160ff9091168152602001610160565b61017c6101f8366004610bfc565b610717565b61021061020b366004610c25565b6107c9565b6040516001600160a01b039091168152602001610160565b61018760075481565b6102396107f3565b6040516101609190610cce565b61017c610855565b61018760065481565b610285610265366004610c25565b600260208190526000918252604090912080546001820154919092015483565b60408051938452602084019290925290820152606001610160565b6000546001600160a01b0316610210565b600180546000908152600260208181526040928390208351606081018552815480825295820154928101839052920154919092018190529091610285565b61017c6102fd366004610c25565b610869565b61017c610310366004610c25565b610876565b610187610323366004610d1b565b6108e9565b61017c610336366004610bfc565b610948565b61017c610349366004610bfc565b610a77565b610356610ab5565b600655565b6000841161039a5760405162461bcd60e51b8152602060048201526007602482015266070726963653d360cc1b60448201526064015b60405180910390fd5b4283111580156103b557506006546103b28442610d5d565b11155b6103f35760405162461bcd60e51b815260206004820152600f60248201526e7374616c65206f722066757475726560881b6044820152606401610391565b60006104366104038787876108e9565b7f19457468657265756d205369676e6564204d6573736167653a0a3332000000006000908152601c91909152603c902090565b905060008060005b848110156105975760006104758588888581811061045e5761045e610d76565b90506020028101906104709190610d8c565b610ae2565b90506001600160a01b0381166104bb5760405162461bcd60e51b815260206004820152600b60248201526a696e76616c69642073696760a81b6044820152606401610391565b6001600160a01b03811660009081526003602052604090205460ff166105125760405162461bcd60e51b815260206004820152600c60248201526b3737ba103932b837b93a32b960a11b6044820152606401610391565b826001600160a01b0316816001600160a01b0316116105735760405162461bcd60e51b815260206004820152601b60248201527f6475706c6963617465206f7220756e6f726465726564207369677300000000006044820152606401610391565b9150818361058081610dda565b94505050808061058f90610dda565b91505061043e565b506005548210156105dc5760405162461bcd60e51b815260206004820152600f60248201526e6e6f7420656e6f756768207369677360881b6044820152606401610391565b600154156106865760018054600090815260026020526040812090910154908189116106115761060c8983610d5d565b61061b565b61061b828a610d5d565b905060008261062e83633b9aca00610df3565b6106389190610e0a565b90506007548111156106825760405162461bcd60e51b8152602060048201526013602482015272646576696174696f6e20746f6f206c6172676560681b6044820152606401610391565b5050505b600188815560408051606080820183528b825260208083018c81528385018c815260008f8152600280855290879020955186559151968501969096559451929094019190915581518b81529283018a90528282018990523390830152517f39460e252b427593643eea2605fc2b94399716c5290df8504190e64d7927fb229181900360800190a15050505050505050565b61071f610ab5565b6001600160a01b03811660009081526003602052604090205460ff166107715760405162461bcd60e51b81526020600482015260076024820152666d697373696e6760c81b6044820152606401610391565b6001600160a01b038116600081815260036020908152604091829020805460ff1916905590519182527ff125aa5e6cb22c17ea0de4e1f86d2ff289ddd6a37e791b9ad29d0091cba06ac891015b60405180910390a150565b600481815481106107d957600080fd5b6000918252602090912001546001600160a01b0316905081565b6060600480548060200260200160405190810160405280929190818152602001828054801561084b57602002820191906000526020600020905b81546001600160a01b0316815260019091019060200180831161082d575b5050505050905090565b61085d610ab5565b6108676000610bac565b565b610871610ab5565b600755565b61087e610ab5565b600081116108b45760405162461bcd60e51b81526020600482015260036024820152620713e360ec1b6044820152606401610391565b60058190556040518181527ff18f88786aae85a652aadb99a82462616489a33370c9bcc7b245906812ef7cd1906020016107be565b604080514660208201526bffffffffffffffffffffffff193060601b169181019190915260548101849052607481018390526094810182905260009060b4016040516020818303038152906040528051906020012090505b9392505050565b610950610ab5565b6001600160a01b03811661098f5760405162461bcd60e51b8152600401610391906020808252600490820152637a65726f60e01b604082015260600190565b6001600160a01b03811660009081526003602052604090205460ff16156109e15760405162461bcd60e51b815260206004820152600660248201526565786973747360d01b6044820152606401610391565b6001600160a01b0381166000818152600360209081526040808320805460ff191660019081179091556004805491820181559093527f8a35acfbc15ff81a39ae7d344fd709f28e8600b4aa8c65c6b64bfe7fe36bd19b90920180546001600160a01b0319168417905590519182527f52824c4a4d431c73d6d24a91f775d722860111c6d30da30b0b21e062fb4c736591016107be565b610a7f610ab5565b6001600160a01b038116610aa957604051631e4fbdf760e01b815260006004820152602401610391565b610ab281610bac565b50565b6000546001600160a01b031633146108675760405163118cdaa760e01b8152336004820152602401610391565b600060418214610af457506000610941565b82356020840135604085013560001a601b811015610b1a57610b17601b82610e2c565b90505b8060ff16601b14158015610b3257508060ff16601c14155b15610b435760009350505050610941565b60408051600081526020810180835289905260ff831691810191909152606081018490526080810183905260019060a0016020604051602081039080840390855afa158015610b96573d6000803e3d6000fd5b5050604051601f19015198975050505050505050565b600080546001600160a01b038381166001600160a01b0319831681178455604051919092169283917f8be0079c531659141344cd1fd0a4f28419497f9722a3daafe3b4186f6b6457e09190a35050565b600060208284031215610c0e57600080fd5b81356001600160a01b038116811461094157600080fd5b600060208284031215610c3757600080fd5b5035919050565b600080600080600060808688031215610c5657600080fd5b853594506020860135935060408601359250606086013567ffffffffffffffff80821115610c8357600080fd5b818801915088601f830112610c9757600080fd5b813581811115610ca657600080fd5b8960208260051b8501011115610cbb57600080fd5b9699959850939650602001949392505050565b6020808252825182820181905260009190848201906040850190845b81811015610d0f5783516001600160a01b031683529284019291840191600101610cea565b50909695505050505050565b600080600060608486031215610d3057600080fd5b505081359360208301359350604090920135919050565b634e487b7160e01b600052601160045260246000fd5b81810381811115610d7057610d70610d47565b92915050565b634e487b7160e01b600052603260045260246000fd5b6000808335601e19843603018112610da357600080fd5b83018035915067ffffffffffffffff821115610dbe57600080fd5b602001915036819003821315610dd357600080fd5b9250929050565b600060018201610dec57610dec610d47565b5060010190565b8082028115828204841417610d7057610d70610d47565b600082610e2757634e487b7160e01b600052601260045260246000fd5b500490565b60ff8181168382160190811115610d7057610d70610d4756fea2646970667358221220362837dcda9c4f0632cf8ba58ce8df5237c639a3ed12e080aa3c3029536d369664736f6c63430008140033",
  "linkReferences": {},
  "deployedLinkReferences": {}
}