{
  "_format": "hh-sol-artifact-1",
  "contractName": "StableNaira",
  "sourceName": "contracts/StableNaira.sol",
  "abi": [
    {
      "inputs": [
        {
          "internalType": "string",
          "name": "name_",
          "type": "string"
        },
        {
          "internalType": "string",
          "name": "symbol_",
          "type": "string"
        }
      ],
      "stateMutability": "nonpayable",
      "type": "constructor"
    },
    {
      "inputs": [
        {
          "internalType": "address",
          "name": "spender",
          "type": "address"
        },
        {
          "internalType": "uint256",
          "name": "allowance",
          "type": "uint256"
        },
        {
          "internalType": "uint256",
          "name": "needed",
          "type": "uint256"
        }
      ],
      "name": "ERC20InsufficientAllowance",
      "type": "error"
    },
    {
      "inputs": [
        {
          "internalType": "address",
          "name": "sender",
          "type": "address"
        },
        {
          "internalType": "uint256",
          "name": "balance",
          "type": "uint256"
        },
        {
          "internalType": "uint256",
          "name": "needed",
          "type": "uint256"
        }
      ],
      "name": "ERC20InsufficientBalance",
      "type": "error"
    },
    {
      "inputs": [
        {
          "internalType": "address",
          "name": "approver",
          "type": "address"
        }
      ],
      "name": "ERC20InvalidApprover",
      "type": "error"
    },
    {
      "inputs": [
        {
          "internalType": "address",
          "name": "receiver",
          "type": "address"
        }
      ],
      "name": "ERC20InvalidReceiver",
      "type": "error"
    },
    {
      "inputs": [
        {
          "internalType": "address",
          "name": "sender",
          "type": "address"
        }
      ],
      "name": "ERC20InvalidSender",
      "type": "error"
    },
    {
      "inputs": [
        {
          "internalType": "address",
          "name": "spender",
          "type": "address"
        }
      ],
      "name": "ERC20InvalidSpender",
      "type": "error"
    },
    {
      "inputs": [],
      "name": "EnforcedPause",
      "type": "error"
    },
    {
      "inputs": [],
      "name": "ExpectedPause",
      "type": "error"
    },
    {
      "inputs": [
        {
          "internalType": "address",
          "name": "owner",
          "type": "address"
        }
      ],
      "name": "OwnableInvalidOwner",
      "type": "error"
    },
    {
      "inputs": [
        {
          "internalType": "address",
          "name": "account",
          "type": "address"
        }
      ],
      "name": "OwnableUnauthorizedAccount",
      "type": "error"
    },
    {
      "anonymous": false,
      "inputs": [
        {
          "indexed": true,
          "internalType": "address",
          "name": "owner",
          "type": "address"
        },
        {
          "indexed": true,
          "internalType": "address",
          "name": "spender",
          "type": "address"
        },
        {
          "indexed": false,
          "internalType": "uint256",
          "name": "value",
          "type": "uint256"
        }
      ],
      "name": "Approval",
      "type": "event"
    },
    {
      "anonymous": false,
      "inputs": [
        {
          "indexed": true,
          "internalType": "address",
          "name": "account",
          "type": "address"
        }
      ],
      "name": "MinterAdded",
      "type": "event"
    },
    {
      "anonymous": false,
      "inputs": [
        {
          "indexed": true,
          "internalType": "address",
          "name": "account",
          "type": "address"
        }
      ],
      "name": "MinterRemoved",
      "type": "event"
    },
    {
      "anonymous": false,
      "inputs": [
        {
          "indexed": true,
          "internalType": "address",
          "name": "previousOwner",
          "type": "address"
        },
        {
          "indexed": true,
          "internalType": "address",
          "name": "newOwner",
          "type": "address"
        }
      ],
      "name": "OwnershipTransferred",
      "type": "event"
    },
    {
      "anonymous": false,
      "inputs": [
        {
          "indexed": false,
          "internalType": "address",
          "name": "account",
          "type": "address"
        }
      ],
      "name": "Paused",
      "type": "event"
    },
    {
      "anonymous": false,
      "inputs": [
        {
          "indexed": true,
          "internalType": "address",
          "name": "account",
          "type": "address"
        },
        {
          "indexed": false,
          "internalType": "uint256",
          "name": "amount",
          "type": "uint256"
        },
        {
          "indexed": false,
          "internalType": "string",
          "name": "offChainReference",
          "type": "string"
        }
      ],
      "name": "RedeemRequested",
      "type": "event"
    },
    {
      "anonymous": false,
      "inputs": [
        {
          "indexed": true,
          "internalType": "address",
          "name": "from",
          "type": "address"
        },
        {
          "indexed": true,
          "internalType": "address",
          "name": "to",
          "type": "address"
        },
        {
          "indexed": false,
          "internalType": "uint256",
          "name": "value",
          "type": "uint256"
        }
      ],
      "name": "Transfer",
      "type": "event"
    },
    {
      "anonymous": false,
      "inputs": [
        {
          "indexed": false,
          "internalType": "address",
          "name": "account",
          "type": "address"
        }
      ],
      "name": "Unpaused",
      "type": "event"
    },
    {
      "inputs": [],
      "name": "VERSION",
      "outputs": [
        {
          "internalType": "string",
          "name": "",
          "type": "string"
        }
      ],
      "stateMutability": "view",
      "type": "function"
    },
    {
      "inputs": [
        {
          "internalType": "address",
          "name": "account",
          "type": "address"
        }
      ],
      "name": "addMinter",
      "outputs": [],
      "stateMutability": "nonpayable",
      "type": "function"
    },
    {
      "inputs": [
        {
          "internalType": "address",
          "name": "owner",
          "type": "address"
        },
        {
          "internalType": "address",
          "name": "spender",
          "type": "address"
        }
      ],
      "name": "allowance",
      "outputs": [
        {
          "internalType": "uint256",
          "name": "",
          "type": "uint256"
        }
      ],
      "stateMutability": "view",
      "type": "function"
    },
    {
      "inputs": [
        {
          "internalType": "address",
          "name": "spender",
          "type": "address"
        },
        {
          "internalType": "uint256",
          "name": "value",
          "type": "uint256"
        }
      ],
      "name": "approve",
      "outputs": [
        {
          "internalType": "bool",
          "name": "",
          "type": "bool"
        }
      ],
      "stateMutability": "nonpayable",
      "type": "function"
    },
    {
      "inputs": [
        {
          "internalType": "address",
          "name": "account",
          "type": "address"
        }
      ],
      "name": "balanceOf",
      "outputs": [
        {
          "internalType": "uint256",
          "name": "",
          "type": "uint256"
        }
      ],
      "stateMutability": "view",
      "type": "function"
    },
    {
      "inputs": [
        {
          "internalType": "uint256",
          "name": "amount",
          "type": "uint256"
        }
      ],
      "name": "burn",
      "outputs": [],
      "stateMutability": "nonpayable",
      "type": "function"
    },
    {
      "inputs": [
        {
          "internalType": "address",
          "name": "account",
          "type": "address"
        },
        {
          "internalType": "uint256",
          "name": "amount",
          "type": "uint256"
        }
      ],
      "name": "burnFrom",
      "outputs": [],
      "stateMutability": "nonpayable",
      "type": "function"
    },
    {
      "inputs": [],
      "name": "decimals",
      "outputs": [
        {
          "internalType": "uint8",
          "name": "",
          "type": "uint8"
        }
      ],
      "stateMutability": "pure",
      "type": "function"
    },
    {
      "inputs": [
        {
          "internalType": "address",
          "name": "to",
          "type": "address"
        },
        {
          "internalType": "uint256",
          "name": "amount",
          "type": "uint256"
        }
      ],
      "name": "mint",
      "outputs": [
        {
          "internalType": "bool",
          "name": "",
          "type": "bool"
        }
      ],
      "stateMutability": "nonpayable",
      "type": "function"
    },
    {
      "inputs": [
        {
          "internalType": "address",
          "name": "",
          "type": "address"
        }
      ],
      "name": "minters",
      "outputs": [
        {
          "internalType": "bool",
          "name": "",
          "type": "bool"
        }
      ],
      "stateMutability": "view",
      "type": "function"
    },
    {
      "inputs": [],
      "name": "name",
      "outputs": [
        {
          "internalType": "string",
          "name": "",
          "type": "string"
        }
      ],
      "stateMutability": "view",
      "type": "function"
    },
    {
      "inputs": [],
      "name": "owner",
      "outputs": [
        {
          "internalType": "address",
          "name": "",
          "type": "address"
        }
      ],
      "stateMutability": "view",
      "type": "function"
    },
    {
      "inputs": [],
      "name": "pause",
      "outputs": [],
      "stateMutability": "nonpayable",
      "type": "function"
    },
    {
      "inputs": [],
      "name": "paused",
      "outputs": [
        {
          "internalType": "bool",
          "name": "",
          "type": "bool"
        }
      ],
      "stateMutability": "view",
      "type": "function"
    },
    {
      "inputs": [
        {
          "internalType": "uint256",
          "name": "amount",
          "type": "uint256"
        },
        {
          "internalType": "string",
          "name": "offChainReference",
          "type": "string"
        }
      ],
      "name": "redeemRequest",
      "outputs": [],
      "stateMutability": "nonpayable",
      "type": "function"
    },
    {
      "inputs": [
        {
          "internalType": "address",
          "name": "account",
          "type": "address"
        }
      ],
      "name": "removeMinter",
      "outputs": [],
      "stateMutability": "nonpayable",
      "type": "function"
    },
    {
      "inputs": [],
      "name": "renounceOwnership",
      "outputs": [],
      "stateMutability": "nonpayable",
      "type": "function"
    },
    {
      "inputs": [],
      "name": "symbol",
      "outputs": [
        {
          "internalType": "string",
          "name": "",
          "type": "string"
        }
      ],
      "stateMutability": "view",
      "type": "function"
    },
    {
      "inputs": [],
      "name": "totalSupply",
      "outputs": [
        {
          "internalType": "uint256",
          "name": "",
          "type": "uint256"
        }
      ],
      "stateMutability": "view",
      "type": "function"
    },
    {
      "inputs": [
        {
          "internalType": "address",
          "name": "to",
          "type": "address"
        },
        {
          "internalType": "uint256",
          "name": "value",
          "type": "uint256"
        }
      ],
      "name": "transfer",
      "outputs": [
        {
          "internalType": "bool",
          "name": "",
          "type": "bool"
        }
      ],
      "stateMutability": "nonpayable",
      "type": "function"
    },
    {
      "inputs": [
        {
          "internalType": "address",
          "name": "from",
          "type": "address"
        },
        {
          "internalType": "address",
          "name": "to",
          "type": "address"
        },
        {
          "internalType": "uint256",
          "name": "value",
          "type": "uint256"
        }
      ],
      "name": "transferFrom",
      "outputs": [
        {
          "internalType": "bool",
          "name": "",
          "type": "bool"
        }
      ],
      "stateMutability": "nonpayable",
      "type": "function"
    },
    {
      "inputs": [
        {
          "internalType": "address",
          "name": "newOwner",
          "type": "address"
        }
      ],
      "name": "transferOwnership",
      "outputs": [],
      "stateMutability": "nonpayable",
      "type": "function"
    },
    {
      "inputs": [],
      "name": "unpause",
      "outputs": [],
      "stateMutability": "nonpayable",
      "type": "function"
    }
  ],
  "bytecode": "0x60806040523480156200001157600080fd5b506040516200135538038062001355833981016040819052620000349162000203565b3382826003620000458382620002fc565b506004620000548282620002fc565b50506005805460ff19169055506001600160a01b0381166200009057604051631e4fbdf760e01b81526000600482015260240160405180910390fd5b6200009b81620000e4565b5033600081815260066020526040808220805460ff19166001179055517f6ae172837ea30b801fbfcdd4108aa1d5bf8ff775444fd70256b44e6bf3dfc3f69190a25050620003c8565b600580546001600160a01b03838116610100818102610100600160a81b031985161790945560405193909204169182907f8be0079c531659141344cd1fd0a4f28419497f9722a3daafe3b4186f6b6457e090600090a35050565b634e487b7160e01b600052604160045260246000fd5b600082601f8301126200016657600080fd5b81516001600160401b03808211156200018357620001836200013e565b604051601f8301601f19908116603f01168101908282118183101715620001ae57620001ae6200013e565b81604052838152602092508683858801011115620001cb57600080fd5b600091505b83821015620001ef5785820183015181830184015290820190620001d0565b600093810190920192909252949350505050565b600080604083850312156200021757600080fd5b82516001600160401b03808211156200022f57600080fd5b6200023d8683870162000154565b935060208501519150808211156200025457600080fd5b50620002638582860162000154565b9150509250929050565b600181811c908216806200028257607f821691505b602082108103620002a357634e487b7160e01b600052602260045260246000fd5b50919050565b601f821115620002f757600081815260208120601f850160051c81016020861015620002d25750805b601f850160051c820191505b81811015620002f357828155600101620002de565b5050505b505050565b81516001600160401b038111156200031857620003186200013e565b62000330816200032984546200026d565b84620002a9565b602080601f8311600181146200036857600084156200034f5750858301515b600019600386901b1c1916600185901b178555620002f3565b600085815260208120601f198616915b82811015620003995788860151825594840194600190910190840162000378565b5085821015620003b85787850151600019600388901b60f8161c191681555b5050505050600190811b01905550565b610f7d80620003d86000396000f3fe608060405234801561001057600080fd5b506004361061014d5760003560e01c8063715018a6116100c3578063983b2d561161007c578063983b2d56146102a5578063a9059cbb146102b8578063dd62ed3e146102cb578063f2fde38b14610304578063f46eccc414610317578063ffa1ad741461033a57600080fd5b8063715018a61461023e57806379cc6790146102465780638456cb5914610259578063879d4189146102615780638da5cb5b1461027457806395d89b411461029d57600080fd5b8063313ce56711610115578063313ce567146101cd5780633f4ba83a146101dc57806340c10f19146101e457806342966c68146101f75780635c975abb1461020a57806370a082311461021557600080fd5b806306fdde0314610152578063095ea7b31461017057806318160ddd1461019357806323b872dd146101a55780633092afd5146101b8575b600080fd5b61015a61035c565b6040516101679190610cb9565b60405180910390f35b61018361017e366004610d23565b6103ee565b6040519015158152602001610167565b6002545b604051908152602001610167565b6101836101b3366004610d4d565b610408565b6101cb6101c6366004610d89565b61042c565b005b60405160028152602001610167565b6101cb6104ea565b6101836101f2366004610d23565b6104fc565b6101cb610205366004610dab565b6105a6565b60055460ff16610183565b610197610223366004610d89565b6001600160a01b031660009081526020819052604090205490565b6101cb6105bb565b6101cb610254366004610d23565b6105cd565b6101cb610612565b6101cb61026f366004610dc4565b610622565b60055461010090046001600160a01b03166040516001600160a01b039091168152602001610167565b61015a61067e565b6101cb6102b3366004610d89565b61068d565b6101836102c6366004610d23565b6107a0565b6101976102d9366004610e40565b6001600160a01b03918216600090815260016020908152604080832093909416825291909152205490565b6101cb610312366004610d89565b6107ae565b610183610325366004610d89565b60066020526000908152604090205460ff1681565b61015a604051806040016040528060038152602001620312e360ec1b81525081565b60606003805461036b90610e73565b80601f016020809104026020016040519081016040528092919081815260200182805461039790610e73565b80156103e45780601f106103b9576101008083540402835291602001916103e4565b820191906000526020600020905b8154815290600101906020018083116103c757829003601f168201915b5050505050905090565b6000336103fc8185856107e9565b60019150505b92915050565b6000336104168582856107fb565b610421858585610879565b506001949350505050565b6104346108d8565b6001600160a01b03811660009081526006602052604090205460ff166104a15760405162461bcd60e51b815260206004820152601960248201527f537461626c654e616972613a206e6f742061206d696e7465720000000000000060448201526064015b60405180910390fd5b6001600160a01b038116600081815260066020526040808220805460ff19169055517fe94479a9f7e1952cc78f2d6baab678adc1b772d936c6583def489e524cb666929190a250565b6104f26108d8565b6104fa61090b565b565b3360009081526006602052604081205460ff1661052b5760405162461bcd60e51b815260040161049890610ead565b61053361095d565b6001600160a01b0383166105935760405162461bcd60e51b815260206004820152602160248201527f537461626c654e616972613a206d696e7420746f207a65726f206164647265736044820152607360f81b6064820152608401610498565b61059d8383610981565b50600192915050565b6105ae61095d565b6105b833826109b7565b50565b6105c36108d8565b6104fa60006109ed565b3360009081526006602052604090205460ff166105fc5760405162461bcd60e51b815260040161049890610ead565b61060461095d565b61060e82826109b7565b5050565b61061a6108d8565b6104fa610a47565b61062a61095d565b61063433846109b7565b336001600160a01b03167f855269a3c942964e56de35012138cbde5a827c4c5b9d5686d96c342ece95c10484848460405161067193929190610ef0565b60405180910390a2505050565b60606004805461036b90610e73565b6106956108d8565b6001600160a01b0381166106eb5760405162461bcd60e51b815260206004820152601960248201527f537461626c654e616972613a207a65726f2061646472657373000000000000006044820152606401610498565b6001600160a01b03811660009081526006602052604090205460ff16156107545760405162461bcd60e51b815260206004820152601b60248201527f537461626c654e616972613a20616c7265616479206d696e74657200000000006044820152606401610498565b6001600160a01b038116600081815260066020526040808220805460ff19166001179055517f6ae172837ea30b801fbfcdd4108aa1d5bf8ff775444fd70256b44e6bf3dfc3f69190a250565b6000336103fc818585610879565b6107b66108d8565b6001600160a01b0381166107e057604051631e4fbdf760e01b815260006004820152602401610498565b6105b8816109ed565b6107f68383836001610a84565b505050565b6001600160a01b038381166000908152600160209081526040808320938616835292905220546000198114610873578181101561086457604051637dc7a0d960e11b81526001600160a01b03841660048201526024810182905260448101839052606401610498565b61087384848484036000610a84565b50505050565b6001600160a01b0383166108a357604051634b637e8f60e11b815260006004820152602401610498565b6001600160a01b0382166108cd5760405163ec442f0560e01b815260006004820152602401610498565b6107f6838383610b59565b6005546001600160a01b036101009091041633146104fa5760405163118cdaa760e01b8152336004820152602401610498565b610913610b6c565b6005805460ff191690557f5db9ee0a495bf2e6ff9c91a7834c1ba4fdd244a5e8aa4e537bd38aeae4b073aa335b6040516001600160a01b03909116815260200160405180910390a1565b60055460ff16156104fa5760405163d93c066560e01b815260040160405180910390fd5b6001600160a01b0382166109ab5760405163ec442f0560e01b815260006004820152602401610498565b61060e60008383610b59565b6001600160a01b0382166109e157604051634b637e8f60e11b815260006004820152602401610498565b61060e82600083610b59565b600580546001600160a01b03838116610100818102610100600160a81b031985161790945560405193909204169182907f8be0079c531659141344cd1fd0a4f28419497f9722a3daafe3b4186f6b6457e090600090a35050565b610a4f61095d565b6005805460ff191660011790557f62e78cea01bee320cd4e420270b5ea74000d11b0c9f74754ebdbfc544b05a2586109403390565b6001600160a01b038416610aae5760405163e602df0560e01b815260006004820152602401610498565b6001600160a01b038316610ad857604051634a1406b160e11b815260006004820152602401610498565b6001600160a01b038085166000908152600160209081526040808320938716835292905220829055801561087357826001600160a01b0316846001600160a01b03167f8c5be1e5ebec7d5bd14f71427d1e84f3dd0314c0f7b2291e5b200ac8c7c3b92584604051610b4b91815260200190565b60405180910390a350505050565b610b6161095d565b6107f6838383610b8f565b60055460ff166104fa57604051638dfc202b60e01b815260040160405180910390fd5b6001600160a01b038316610bba578060026000828254610baf9190610f26565b90915550610c2c9050565b6001600160a01b03831660009081526020819052604090205481811015610c0d5760405163391434e360e21b81526001600160a01b03851660048201526024810182905260448101839052606401610498565b6001600160a01b03841660009081526020819052604090209082900390555b6001600160a01b038216610c4857600280548290039055610c67565b6001600160a01b03821660009081526020819052604090208054820190555b816001600160a01b0316836001600160a01b03167fddf252ad1be2c89b69c2b068fc378daa952ba7f163c4a11628f55a4df523b3ef83604051610cac91815260200190565b60405180910390a3505050565b600060208083528351808285015260005b81811015610ce657858101830151858201604001528201610cca565b506000604082860101526040601f19601f8301168501019250505092915050565b80356001600160a01b0381168114610d1e57600080fd5b919050565b60008060408385031215610d3657600080fd5b610d3f83610d07565b946020939093013593505050565b600080600060608486031215610d6257600080fd5b610d6b84610d07565b9250610d7960208501610d07565b9150604084013590509250925092565b600060208284031215610d9b57600080fd5b610da482610d07565b9392505050565b600060208284031215610dbd57600080fd5b5035919050565b600080600060408486031215610dd957600080fd5b83359250602084013567ffffffffffffffff80821115610df857600080fd5b818601915086601f830112610e0c57600080fd5b813581811115610e1b57600080fd5b876020828501011115610e2d57600080fd5b6020830194508093505050509250925092565b60008060408385031215610e5357600080fd5b610e5c83610d07565b9150610e6a60208401610d07565b90509250929050565b600181811c90821680610e8757607f821691505b602082108103610ea757634e487b7160e01b600052602260045260246000fd5b50919050565b60208082526023908201527f537461626c654e616972613a2063616c6c6572206973206e6f742061206d696e6040820152623a32b960e91b606082015260800190565b83815260406020820152816040820152818360608301376000818301606090810191909152601f909201601f1916010192915050565b8082018082111561040257634e487b7160e01b600052601160045260246000fdfea26469706673582212209600f9be4dc9bc5bec66a0fa7adc661a910499cb2e1f0ee09c677425afccd6ff64736f6c63430008140033",
  "linkReferences": {},
  "deployedLinkReferences": {}
}